{
  "_format": "hh-sol-artifact-1",
  "contractName": "Market",
  "sourceName": "contracts/Market.sol",
  "abi": [
    {
      "anonymous": false,
      "inputs": [
        {
          "indexed": false,
          "internalType": "uint256",
          "name": "tokenId",
          "type": "uint256"
        },
        {
          "indexed": false,
          "internalType": "uint256",
          "name": "sellNo",
          "type": "uint256"
        },
        {
          "indexed": false,
          "internalType": "address",
          "name": "player",
          "type": "address"
        }
      ],
      "name": "OnBuy",
      "type": "event"
    },
    {
      "anonymous": false,
      "inputs": [
        {
          "indexed": false,
          "internalType": "uint256",
          "name": "tokenId",
          "type": "uint256"
        },
        {
          "indexed": false,
          "internalType": "uint256",
          "name": "sellNo",
          "type": "uint256"
        },
        {
          "indexed": false,
          "internalType": "address",
          "name": "player",
          "type": "address"
        }
      ],
      "name": "OnSale",
      "type": "event"
    },
    {
      "anonymous": false,
      "inputs": [
        {
          "indexed": true,
          "internalType": "bytes32",
          "name": "role",
          "type": "bytes32"
        },
        {
          "indexed": true,
          "internalType": "bytes32",
          "name": "previousAdminRole",
          "type": "bytes32"
        },
        {
          "indexed": true,
          "internalType": "bytes32",
          "name": "newAdminRole",
          "type": "bytes32"
        }
      ],
      "name": "RoleAdminChanged",
      "type": "event"
    },
    {
      "anonymous": false,
      "inputs": [
        {
          "indexed": true,
          "internalType": "bytes32",
          "name": "role",
          "type": "bytes32"
        },
        {
          "indexed": true,
          "internalType": "address",
          "name": "account",
          "type": "address"
        },
        {
          "indexed": true,
          "internalType": "address",
          "name": "sender",
          "type": "address"
        }
      ],
      "name": "RoleGranted",
      "type": "event"
    },
    {
      "anonymous": false,
      "inputs": [
        {
          "indexed": true,
          "internalType": "bytes32",
          "name": "role",
          "type": "bytes32"
        },
        {
          "indexed": true,
          "internalType": "address",
          "name": "account",
          "type": "address"
        },
        {
          "indexed": true,
          "internalType": "address",
          "name": "sender",
          "type": "address"
        }
      ],
      "name": "RoleRevoked",
      "type": "event"
    },
    {
      "inputs": [],
      "name": "DEFAULT_ADMIN_ROLE",
      "outputs": [
        {
          "internalType": "bytes32",
          "name": "",
          "type": "bytes32"
        }
      ],
      "stateMutability": "view",
      "type": "function"
    },
    {
      "inputs": [],
      "name": "OnePageNum",
      "outputs": [
        {
          "internalType": "uint256",
          "name": "",
          "type": "uint256"
        }
      ],
      "stateMutability": "view",
      "type": "function"
    },
    {
      "inputs": [
        {
          "internalType": "uint256",
          "name": "_sellNo",
          "type": "uint256"
        }
      ],
      "name": "buy",
      "outputs": [],
      "stateMutability": "nonpayable",
      "type": "function"
    },
    {
      "inputs": [],
      "name": "dlt",
      "outputs": [
        {
          "internalType": "contract IERC20Metadata",
          "name": "",
          "type": "address"
        }
      ],
      "stateMutability": "view",
      "type": "function"
    },
    {
      "inputs": [
        {
          "internalType": "bytes32",
          "name": "role",
          "type": "bytes32"
        }
      ],
      "name": "getRoleAdmin",
      "outputs": [
        {
          "internalType": "bytes32",
          "name": "",
          "type": "bytes32"
        }
      ],
      "stateMutability": "view",
      "type": "function"
    },
    {
      "inputs": [
        {
          "internalType": "uint256",
          "name": "",
          "type": "uint256"
        }
      ],
      "name": "goods",
      "outputs": [
        {
          "internalType": "uint256",
          "name": "sellNo",
          "type": "uint256"
        },
        {
          "internalType": "uint256",
          "name": "tokenId",
          "type": "uint256"
        },
        {
          "internalType": "uint256",
          "name": "price",
          "type": "uint256"
        },
        {
          "internalType": "uint256",
          "name": "createTime",
          "type": "uint256"
        },
        {
          "internalType": "address",
          "name": "seller",
          "type": "address"
        },
        {
          "internalType": "bool",
          "name": "onSell",
          "type": "bool"
        },
        {
          "internalType": "uint256",
          "name": "soldTime",
          "type": "uint256"
        },
        {
          "internalType": "address",
          "name": "buyer",
          "type": "address"
        }
      ],
      "stateMutability": "view",
      "type": "function"
    },
    {
      "inputs": [
        {
          "internalType": "bytes32",
          "name": "role",
          "type": "bytes32"
        },
        {
          "internalType": "address",
          "name": "account",
          "type": "address"
        }
      ],
      "name": "grantRole",
      "outputs": [],
      "stateMutability": "nonpayable",
      "type": "function"
    },
    {
      "inputs": [
        {
          "internalType": "bytes32",
          "name": "role",
          "type": "bytes32"
        },
        {
          "internalType": "address",
          "name": "account",
          "type": "address"
        }
      ],
      "name": "hasRole",
      "outputs": [
        {
          "internalType": "bool",
          "name": "",
          "type": "bool"
        }
      ],
      "stateMutability": "view",
      "type": "function"
    },
    {
      "inputs": [],
      "name": "hero",
      "outputs": [
        {
          "internalType": "contract IHero",
          "name": "",
          "type": "address"
        }
      ],
      "stateMutability": "view",
      "type": "function"
    },
    {
      "inputs": [
        {
          "internalType": "address",
          "name": "heroAddress",
          "type": "address"
        },
        {
          "internalType": "address",
          "name": "dltAddress",
          "type": "address"
        },
        {
          "internalType": "address",
          "name": "configAddress",
          "type": "address"
        }
      ],
      "name": "initialize",
      "outputs": [],
      "stateMutability": "nonpayable",
      "type": "function"
    },
    {
      "inputs": [],
      "name": "myOrders",
      "outputs": [
        {
          "components": [
            {
              "internalType": "uint256",
              "name": "sellNo",
              "type": "uint256"
            },
            {
              "internalType": "uint256",
              "name": "tokenId",
              "type": "uint256"
            },
            {
              "internalType": "uint256",
              "name": "price",
              "type": "uint256"
            },
            {
              "internalType": "uint256",
              "name": "createTime",
              "type": "uint256"
            },
            {
              "internalType": "address",
              "name": "seller",
              "type": "address"
            },
            {
              "internalType": "bool",
              "name": "onSell",
              "type": "bool"
            },
            {
              "internalType": "uint256",
              "name": "soldTime",
              "type": "uint256"
            },
            {
              "internalType": "address",
              "name": "buyer",
              "type": "address"
            }
          ],
          "internalType": "struct Market.GoodInfo[]",
          "name": "",
          "type": "tuple[]"
        }
      ],
      "stateMutability": "view",
      "type": "function"
    },
    {
      "inputs": [
        {
          "internalType": "bool",
          "name": "isSold",
          "type": "bool"
        }
      ],
      "name": "mySales",
      "outputs": [
        {
          "components": [
            {
              "internalType": "uint256",
              "name": "sellNo",
              "type": "uint256"
            },
            {
              "internalType": "uint256",
              "name": "tokenId",
              "type": "uint256"
            },
            {
              "internalType": "uint256",
              "name": "price",
              "type": "uint256"
            },
            {
              "internalType": "uint256",
              "name": "createTime",
              "type": "uint256"
            },
            {
              "internalType": "address",
              "name": "seller",
              "type": "address"
            },
            {
              "internalType": "bool",
              "name": "onSell",
              "type": "bool"
            },
            {
              "internalType": "uint256",
              "name": "soldTime",
              "type": "uint256"
            },
            {
              "internalType": "address",
              "name": "buyer",
              "type": "address"
            }
          ],
          "internalType": "struct Market.GoodInfo[]",
          "name": "",
          "type": "tuple[]"
        }
      ],
      "stateMutability": "view",
      "type": "function"
    },
    {
      "inputs": [
        {
          "internalType": "bytes32",
          "name": "role",
          "type": "bytes32"
        },
        {
          "internalType": "address",
          "name": "account",
          "type": "address"
        }
      ],
      "name": "renounceRole",
      "outputs": [],
      "stateMutability": "nonpayable",
      "type": "function"
    },
    {
      "inputs": [
        {
          "internalType": "bytes32",
          "name": "role",
          "type": "bytes32"
        },
        {
          "internalType": "address",
          "name": "account",
          "type": "address"
        }
      ],
      "name": "revokeRole",
      "outputs": [],
      "stateMutability": "nonpayable",
      "type": "function"
    },
    {
      "inputs": [
        {
          "internalType": "uint256",
          "name": "tokenId",
          "type": "uint256"
        },
        {
          "internalType": "uint256",
          "name": "price",
          "type": "uint256"
        }
      ],
      "name": "sale",
      "outputs": [],
      "stateMutability": "nonpayable",
      "type": "function"
    },
    {
      "inputs": [
        {
          "internalType": "bool",
          "name": "isSold",
          "type": "bool"
        },
        {
          "internalType": "uint256",
          "name": "page",
          "type": "uint256"
        }
      ],
      "name": "saleList",
      "outputs": [
        {
          "components": [
            {
              "internalType": "uint256",
              "name": "sellNo",
              "type": "uint256"
            },
            {
              "internalType": "uint256",
              "name": "tokenId",
              "type": "uint256"
            },
            {
              "internalType": "uint256",
              "name": "price",
              "type": "uint256"
            },
            {
              "internalType": "uint256",
              "name": "createTime",
              "type": "uint256"
            },
            {
              "internalType": "address",
              "name": "seller",
              "type": "address"
            },
            {
              "internalType": "bool",
              "name": "onSell",
              "type": "bool"
            },
            {
              "internalType": "uint256",
              "name": "soldTime",
              "type": "uint256"
            },
            {
              "internalType": "address",
              "name": "buyer",
              "type": "address"
            }
          ],
          "internalType": "struct Market.GoodInfo[]",
          "name": "",
          "type": "tuple[]"
        }
      ],
      "stateMutability": "view",
      "type": "function"
    },
    {
      "inputs": [
        {
          "internalType": "bool",
          "name": "isSold",
          "type": "bool"
        }
      ],
      "name": "saleListCount",
      "outputs": [
        {
          "internalType": "uint256",
          "name": "",
          "type": "uint256"
        }
      ],
      "stateMutability": "view",
      "type": "function"
    },
    {
      "inputs": [
        {
          "internalType": "uint256",
          "name": "onePageNum",
          "type": "uint256"
        }
      ],
      "name": "setOnPageNum",
      "outputs": [],
      "stateMutability": "nonpayable",
      "type": "function"
    },
    {
      "inputs": [
        {
          "internalType": "uint256",
          "name": "_sellNo",
          "type": "uint256"
        }
      ],
      "name": "stopSale",
      "outputs": [],
      "stateMutability": "nonpayable",
      "type": "function"
    },
    {
      "inputs": [
        {
          "internalType": "bytes4",
          "name": "interfaceId",
          "type": "bytes4"
        }
      ],
      "name": "supportsInterface",
      "outputs": [
        {
          "internalType": "bool",
          "name": "",
          "type": "bool"
        }
      ],
      "stateMutability": "view",
      "type": "function"
    }
  ],
  "bytecode": "0x608060405234801561001057600080fd5b50611f67806100206000396000f3fe608060405234801561001057600080fd5b506004361061012c5760003560e01c80637f513d5d116100ad578063ad30323211610071578063ad30323214610324578063c0c53b8b14610337578063d547741f1461034a578063d96a094a1461035d578063f8dd1f761461037057600080fd5b80637f513d5d146102b85780638317f65c146102e357806391d14854146102f65780639d3ffb3114610309578063a217fddf1461031c57600080fd5b8063248a9ca3116100f4578063248a9ca3146101ad5780632f2ff15d146101d05780632f724394146101e357806336568abe1461029257806365ce7db2146102a557600080fd5b806301ffc9a7146101315780630c8445f614610159578063105bc546146101705780631adc46d8146101855780631c35f96214610198575b600080fd5b61014461013f366004611c13565b610383565b60405190151581526020015b60405180910390f35b61016260cf5481565b604051908152602001610150565b6101786103ba565b6040516101509190611d0d565b610162610193366004611b69565b61057a565b6101ab6101a6366004611c53565b6105f7565b005b6101626101bb366004611bcc565b60009081526065602052604090206001015490565b6101ab6101de366004611be4565b6108ca565b6102456101f1366004611bcc565b60cd60205260009081526040902080546001820154600283015460038401546004850154600586015460069096015494959394929391926001600160a01b0380831693600160a01b90930460ff1692911688565b6040805198895260208901979097529587019490945260608601929092526001600160a01b03908116608086015290151560a085015260c08401919091521660e082015261010001610150565b6101ab6102a0366004611be4565b6108f0565b6101786102b3366004611ba1565b61096e565b60c9546102cb906001600160a01b031681565b6040516001600160a01b039091168152602001610150565b60ca546102cb906001600160a01b031681565b610144610304366004611be4565b610b57565b6101ab610317366004611bcc565b610b82565b610162600081565b610178610332366004611b69565b610b94565b6101ab610345366004611b1f565b610dec565b6101ab610358366004611be4565b610eb3565b6101ab61036b366004611bcc565b610ed9565b6101ab61037e366004611bcc565b611393565b60006001600160e01b03198216637965db0b60e01b14806103b457506301ffc9a760e01b6001600160e01b03198316145b92915050565b60606000805b60cb5481101561040a57600081815260cd60205260409020600601546001600160a01b03163314156103fa57816103f681611edd565b9250505b61040381611edd565b90506103c0565b5060008167ffffffffffffffff81111561043457634e487b7160e01b600052604160045260246000fd5b60405190808252806020026020018201604052801561046d57816020015b61045a611aaa565b8152602001906001900390816104525790505b50905081156103b4576000805b60cb5481101561057257600081815260cd60205260409020600601546001600160a01b031633141561056257600081815260cd6020908152604091829020825161010081018452815481526001820154928101929092526002810154928201929092526003820154606082015260048201546001600160a01b038082166080840152600160a01b90910460ff16151560a0830152600583015460c083015260069092015490911660e0820152835184908490811061054857634e487b7160e01b600052603260045260246000fd5b6020026020010181905250818061055e90611edd565b9250505b61056b81611edd565b905061047a565b505092915050565b600080805b60cb548110156105f057836105af57600081815260cd6020526040902060040154600160a01b900460ff166105cd565b600081815260cd6020526040902060040154600160a01b900460ff16155b156105e057816105dc81611edd565b9250505b6105e981611edd565b905061057f565b5092915050565b60c9546040516331a9108f60e11b81526004810184905233916001600160a01b031690636352211e9060240160206040518083038186803b15801561063b57600080fd5b505afa15801561064f573d6000803e3d6000fd5b505050506040513d601f19601f820116820180604052508101906106739190611b03565b6001600160a01b0316146106bb5760405162461bcd60e51b815260206004820152600a60248201526937b7363c9037bbb732b960b11b60448201526064015b60405180910390fd5b600081116106fe5760405162461bcd60e51b815260206004820152601060248201526f07072696365206d757374206265203e360841b60448201526064016106b2565b60c9546040516323b872dd60e01b81526001600160a01b03909116906323b872dd9061073290339030908790600401611ce9565b600060405180830381600087803b15801561074c57600080fd5b505af1158015610760573d6000803e3d6000fd5b50505050600060405180610100016040528061077b60cb5490565b8152602001848152602001838152602001428152602001336001600160a01b031681526020016001151581526020016000815260200160006001600160a01b031681525090508060cd60006107cf60cb5490565b8152602080820192909252604090810160002083518155918301516001830155820151600282015560608201516003820155608082015160048201805460a08501511515600160a01b026001600160a81b03199091166001600160a01b039384161717905560c0830151600583015560e09092015160069091018054919092166001600160a01b0319919091161790557f43da0f4570b3cfb6346ed3bc19dacad4374a13252c5c07a342bd7bdea65da2cb8361088a60cb5490565b604080519283526020830191909152339082015260600160405180910390a16108b760cb80546001019055565b6108c560cc80546001019055565b505050565b6000828152606560205260409020600101546108e68133611559565b6108c583836115bd565b6001600160a01b03811633146109605760405162461bcd60e51b815260206004820152602f60248201527f416363657373436f6e74726f6c3a2063616e206f6e6c792072656e6f756e636560448201526e103937b632b9903337b91039b2b63360891b60648201526084016106b2565b61096a8282611643565b5050565b6060600061097b8461057a565b905060008167ffffffffffffffff8111156109a657634e487b7160e01b600052604160045260246000fd5b6040519080825280602002602001820160405280156109df57816020015b6109cc611aaa565b8152602001906001900390816109c45790505b50905060008060cf546001876109f59190611e83565b6109ff9190611e64565b905060005b60cb54811015610b4b5787610a3457600081815260cd6020526040902060040154600160a01b900460ff16610a52565b600081815260cd6020526040902060040154600160a01b900460ff16155b15610b2d5760008211610b1f57600081815260cd6020908152604091829020825161010081018452815481526001820154928101929092526002810154928201929092526003820154606082015260048201546001600160a01b038082166080840152600160a01b90910460ff16151560a0830152600583015460c083015260069092015490911660e08201528451859085908110610b0157634e487b7160e01b600052603260045260246000fd5b60200260200101819052508280610b1790611edd565b935050610b2d565b610b2a600183611e83565b91505b60cf548310610b3b57610b4b565b610b4481611edd565b9050610a04565b50919695505050505050565b60009182526065602090815260408084206001600160a01b0393909316845291905290205460ff1690565b6000610b8e8133611559565b5060cf55565b60606000805b60cb54811015610c2f57600081815260cd60205260409020600401546001600160a01b031633148015610c0c575083610bee57600081815260cd6020526040902060040154600160a01b900460ff16610c0c565b600081815260cd6020526040902060040154600160a01b900460ff16155b15610c1f5781610c1b81611edd565b9250505b610c2881611edd565b9050610b9a565b5060008167ffffffffffffffff811115610c5957634e487b7160e01b600052604160045260246000fd5b604051908082528060200260200182016040528015610c9257816020015b610c7f611aaa565b815260200190600190039081610c775790505b5090508115610de5576000805b60cb54811015610de257600081815260cd60205260409020600401546001600160a01b031633148015610d11575085610cf357600081815260cd6020526040902060040154600160a01b900460ff16610d11565b600081815260cd6020526040902060040154600160a01b900460ff16155b15610dd257600081815260cd6020908152604091829020825161010081018452815481526001820154928101929092526002810154928201929092526003820154606082015260048201546001600160a01b038082166080840152600160a01b90910460ff16151560a0830152600583015460c083015260069092015490911660e08201528351849084908110610db857634e487b7160e01b600052603260045260246000fd5b60200260200101819052508180610dce90611edd565b9250505b610ddb81611edd565b9050610c9f565b50505b9392505050565b600054610100900460ff1680610e05575060005460ff16155b610e215760405162461bcd60e51b81526004016106b290611dde565b600054610100900460ff16158015610e43576000805461ffff19166101011790555b610e4b6116aa565b610e5361172e565b610e5e60003361178d565b60c980546001600160a01b038087166001600160a01b03199283161790925560ca805486841690831617905560ce8054928516929091169190911790558015610ead576000805461ff00191690555b50505050565b600082815260656020526040902060010154610ecf8133611559565b6108c58383611643565b600081815260cd6020526040902060048101546001600160a01b0316331415610f305760405162461bcd60e51b815260206004820152600960248201526863616e27742062757960b81b60448201526064016106b2565b60ca5460028201546040516323b872dd60e01b81526001600160a01b03909216916323b872dd91610f679133913091600401611ce9565b602060405180830381600087803b158015610f8157600080fd5b505af1158015610f95573d6000803e3d6000fd5b505050506040513d601f19601f82011682018060405250810190610fb99190611b85565b5060048101805460ff60a01b191690556006810180546001600160a01b03191633179055426005820155610fed60cc611797565b6000606460ce60009054906101000a90046001600160a01b03166001600160a01b031663978bbdb96040518163ffffffff1660e01b815260040160206040518083038186803b15801561103f57600080fd5b505afa158015611053573d6000803e3d6000fd5b505050506040513d601f19601f820116820180604052508101906110779190611c3b565b83600201546110869190611e64565b6110909190611e44565b60ca54600484015460028501549293506001600160a01b039182169263a9059cbb92909116906110c1908590611e83565b6040516001600160e01b031960e085901b1681526001600160a01b0390921660048301526024820152604401602060405180830381600087803b15801561110757600080fd5b505af115801561111b573d6000803e3d6000fd5b505050506040513d601f19601f8201168201806040525081019061113f9190611b85565b5060ce54604080516365e17c9d60e01b815290516000926001600160a01b0316916365e17c9d916004808301926020929190829003018186803b15801561118557600080fd5b505afa158015611199573d6000803e3d6000fd5b505050506040513d601f19601f820116820180604052508101906111bd9190611b03565b6001600160a01b0316141580156111d45750600081115b156112e25760ca5460ce54604080516365e17c9d60e01b815290516001600160a01b039384169363a9059cbb9316916365e17c9d916004808301926020929190829003018186803b15801561122857600080fd5b505afa15801561123c573d6000803e3d6000fd5b505050506040513d601f19601f820116820180604052508101906112609190611b03565b6040516001600160e01b031960e084901b1681526001600160a01b03909116600482015260248101849052604401602060405180830381600087803b1580156112a857600080fd5b505af11580156112bc573d6000803e3d6000fd5b505050506040513d601f19601f820116820180604052508101906112e09190611b85565b505b60c95460018301546040516323b872dd60e01b81526001600160a01b03909216916323b872dd916113199130913391600401611ce9565b600060405180830381600087803b15801561133357600080fd5b505af1158015611347573d6000803e3d6000fd5b50505050600182015460408051918252602082018590523382820152517f833db624fce046b7a7ac51c80e4354317c43b154428825fc8f4f8f7ca4dd205a9181900360600190a1505050565b600081815260cd6020908152604091829020825161010081018452815481526001820154928101929092526002810154928201929092526003820154606082015260048201546001600160a01b0380821660808401819052600160a01b90920460ff16151560a0840152600584015460c084015260069093015490921660e08201529033146114525760405162461bcd60e51b815260206004820152600b60248201526a37b7363c9039b2b63632b960a91b60448201526064016106b2565b8060a001516114915760405162461bcd60e51b815260206004820152600b60248201526a1b9bdd081a5b881cd95b1b60aa1b60448201526064016106b2565b600082815260cd602052604081208181556001810182905560028101829055600381018290556004810180546001600160a81b0319169055600581019190915560060180546001600160a01b03191690556114ec60cc611797565b60c95460208201516040516323b872dd60e01b81526001600160a01b03909216916323b872dd916115239130913391600401611ce9565b600060405180830381600087803b15801561153d57600080fd5b505af1158015611551573d6000803e3d6000fd5b505050505050565b6115638282610b57565b61096a5761157b816001600160a01b031660146117ee565b6115868360206117ee565b604051602001611597929190611c74565b60408051601f198184030181529082905262461bcd60e51b82526106b291600401611dab565b6115c78282610b57565b61096a5760008281526065602090815260408083206001600160a01b03851684529091529020805460ff191660011790556115ff3390565b6001600160a01b0316816001600160a01b0316837f2f8788117e7eff1d82e926ec794901d17c78024a50270940304540a733656f0d60405160405180910390a45050565b61164d8282610b57565b1561096a5760008281526065602090815260408083206001600160a01b0385168085529252808320805460ff1916905551339285917ff6391f5c32d9c69d2a47ea670b442974b53935d1edc7fd64eb21e047a839171b9190a45050565b600054610100900460ff16806116c3575060005460ff16155b6116df5760405162461bcd60e51b81526004016106b290611dde565b600054610100900460ff16158015611701576000805461ffff19166101011790555b6117096119d0565b6117116119d0565b6117196119d0565b801561172b576000805461ff00191690555b50565b600054610100900460ff1680611747575060005460ff16155b6117635760405162461bcd60e51b81526004016106b290611dde565b600054610100900460ff16158015611785576000805461ffff19166101011790555b611719611a3a565b61096a82826115bd565b8054806117e65760405162461bcd60e51b815260206004820152601b60248201527f436f756e7465723a2064656372656d656e74206f766572666c6f77000000000060448201526064016106b2565b600019019055565b606060006117fd836002611e64565b611808906002611e2c565b67ffffffffffffffff81111561182e57634e487b7160e01b600052604160045260246000fd5b6040519080825280601f01601f191660200182016040528015611858576020820181803683370190505b509050600360fc1b8160008151811061188157634e487b7160e01b600052603260045260246000fd5b60200101906001600160f81b031916908160001a905350600f60fb1b816001815181106118be57634e487b7160e01b600052603260045260246000fd5b60200101906001600160f81b031916908160001a90535060006118e2846002611e64565b6118ed906001611e2c565b90505b6001811115611981576f181899199a1a9b1b9c1cb0b131b232b360811b85600f166010811061192f57634e487b7160e01b600052603260045260246000fd5b1a60f81b82828151811061195357634e487b7160e01b600052603260045260246000fd5b60200101906001600160f81b031916908160001a90535060049490941c9361197a81611ec6565b90506118f0565b508315610de55760405162461bcd60e51b815260206004820181905260248201527f537472696e67733a20686578206c656e67746820696e73756666696369656e7460448201526064016106b2565b600054610100900460ff16806119e9575060005460ff16155b611a055760405162461bcd60e51b81526004016106b290611dde565b600054610100900460ff16158015611719576000805461ffff1916610101179055801561172b576000805461ff001916905550565b600054610100900460ff1680611a53575060005460ff16155b611a6f5760405162461bcd60e51b81526004016106b290611dde565b600054610100900460ff16158015611a91576000805461ffff19166101011790555b6001609755801561172b576000805461ff001916905550565b6040518061010001604052806000815260200160008152602001600081526020016000815260200160006001600160a01b031681526020016000151581526020016000815260200160006001600160a01b031681525090565b600060208284031215611b14578081fd5b8151610de581611f0e565b600080600060608486031215611b33578182fd5b8335611b3e81611f0e565b92506020840135611b4e81611f0e565b91506040840135611b5e81611f0e565b809150509250925092565b600060208284031215611b7a578081fd5b8135610de581611f23565b600060208284031215611b96578081fd5b8151610de581611f23565b60008060408385031215611bb3578182fd5b8235611bbe81611f23565b946020939093013593505050565b600060208284031215611bdd578081fd5b5035919050565b60008060408385031215611bf6578182fd5b823591506020830135611c0881611f0e565b809150509250929050565b600060208284031215611c24578081fd5b81356001600160e01b031981168114610de5578182fd5b600060208284031215611c4c578081fd5b5051919050565b60008060408385031215611c65578182fd5b50508035926020909101359150565b7f416363657373436f6e74726f6c3a206163636f756e7420000000000000000000815260008351611cac816017850160208801611e9a565b7001034b99036b4b9b9b4b733903937b6329607d1b6017918401918201528351611cdd816028840160208801611e9a565b01602801949350505050565b6001600160a01b039384168152919092166020820152604081019190915260600190565b602080825282518282018190526000919060409081850190868401855b82811015611d9e5781518051855286810151878601528581015186860152606080820151908601526080808201516001600160a01b039081169187019190915260a08083015115159087015260c0808301519087015260e09182015116908501526101009093019290850190600101611d2a565b5091979650505050505050565b6020815260008251806020840152611dca816040850160208701611e9a565b601f01601f19169190910160400192915050565b6020808252602e908201527f496e697469616c697a61626c653a20636f6e747261637420697320616c72656160408201526d191e481a5b9a5d1a585b1a5e995960921b606082015260800190565b60008219821115611e3f57611e3f611ef8565b500190565b600082611e5f57634e487b7160e01b81526012600452602481fd5b500490565b6000816000190483118215151615611e7e57611e7e611ef8565b500290565b600082821015611e9557611e95611ef8565b500390565b60005b83811015611eb5578181015183820152602001611e9d565b83811115610ead5750506000910152565b600081611ed557611ed5611ef8565b506000190190565b6000600019821415611ef157611ef1611ef8565b5060010190565b634e487b7160e01b600052601160045260246000fd5b6001600160a01b038116811461172b57600080fd5b801515811461172b57600080fdfea26469706673582212203f3148a6236edb1a7ed55d35625c2e5d3dfec6f4a9680ae82e085739a8eacc1964736f6c63430008040033",
  "linkReferences": {},
  "deployedLinkReferences": {}
}